{
  "address": "0xF78Ea124C340cbBbe55C42428137dDE5E5b90914",
  "abi": [
    {
      "inputs": [
        {
          "internalType": "address",
          "name": "vrfCoordinatorV2",
          "type": "address"
        },
        {
          "internalType": "uint64",
          "name": "subscriptionId",
          "type": "uint64"
        },
        {
          "internalType": "bytes32",
          "name": "gasLane",
          "type": "bytes32"
        },
        {
          "internalType": "uint256",
          "name": "mintFee",
          "type": "uint256"
        },
        {
          "internalType": "uint32",
          "name": "callbackGasLimit",
          "type": "uint32"
        },
        {
          "internalType": "string[3]",
          "name": "dogTokenURIs",
          "type": "string[3]"
        }
      ],
      "stateMutability": "nonpayable",
      "type": "constructor"
    },
    {
      "inputs": [
        {
          "internalType": "address",
          "name": "have",
          "type": "address"
        },
        {
          "internalType": "address",
          "name": "want",
          "type": "address"
        }
      ],
      "name": "OnlyCoordinatorCanFulfill",
      "type": "error"
    },
    {
      "inputs": [],
      "name": "RandomIpfsNft__NeedMoreETHSent",
      "type": "error"
    },
    {
      "inputs": [],
      "name": "RandomIpfsNft__RangeOutOfBounds",
      "type": "error"
    },
    {
      "inputs": [],
      "name": "RandomIpfsNft__TransferFailed",
      "type": "error"
    },
    {
      "anonymous": false,
      "inputs": [
        {
          "indexed": true,
          "internalType": "address",
          "name": "owner",
          "type": "address"
        },
        {
          "indexed": true,
          "internalType": "address",
          "name": "approved",
          "type": "address"
        },
        {
          "indexed": true,
          "internalType": "uint256",
          "name": "tokenId",
          "type": "uint256"
        }
      ],
      "name": "Approval",
      "type": "event"
    },
    {
      "anonymous": false,
      "inputs": [
        {
          "indexed": true,
          "internalType": "address",
          "name": "owner",
          "type": "address"
        },
        {
          "indexed": true,
          "internalType": "address",
          "name": "operator",
          "type": "address"
        },
        {
          "indexed": false,
          "internalType": "bool",
          "name": "approved",
          "type": "bool"
        }
      ],
      "name": "ApprovalForAll",
      "type": "event"
    },
    {
      "anonymous": false,
      "inputs": [
        {
          "indexed": false,
          "internalType": "enum RandomIpfsNft.Breed",
          "name": "dogBreed",
          "type": "uint8"
        },
        {
          "indexed": false,
          "internalType": "address",
          "name": "minter",
          "type": "address"
        }
      ],
      "name": "NftMinted",
      "type": "event"
    },
    {
      "anonymous": false,
      "inputs": [
        {
          "indexed": true,
          "internalType": "uint256",
          "name": "requestId",
          "type": "uint256"
        },
        {
          "indexed": false,
          "internalType": "address",
          "name": "requester",
          "type": "address"
        }
      ],
      "name": "NftRequested",
      "type": "event"
    },
    {
      "anonymous": false,
      "inputs": [
        {
          "indexed": true,
          "internalType": "address",
          "name": "previousOwner",
          "type": "address"
        },
        {
          "indexed": true,
          "internalType": "address",
          "name": "newOwner",
          "type": "address"
        }
      ],
      "name": "OwnershipTransferred",
      "type": "event"
    },
    {
      "anonymous": false,
      "inputs": [
        {
          "indexed": true,
          "internalType": "address",
          "name": "from",
          "type": "address"
        },
        {
          "indexed": true,
          "internalType": "address",
          "name": "to",
          "type": "address"
        },
        {
          "indexed": true,
          "internalType": "uint256",
          "name": "tokenId",
          "type": "uint256"
        }
      ],
      "name": "Transfer",
      "type": "event"
    },
    {
      "inputs": [
        {
          "internalType": "address",
          "name": "to",
          "type": "address"
        },
        {
          "internalType": "uint256",
          "name": "tokenId",
          "type": "uint256"
        }
      ],
      "name": "approve",
      "outputs": [],
      "stateMutability": "nonpayable",
      "type": "function"
    },
    {
      "inputs": [
        {
          "internalType": "address",
          "name": "owner",
          "type": "address"
        }
      ],
      "name": "balanceOf",
      "outputs": [
        {
          "internalType": "uint256",
          "name": "",
          "type": "uint256"
        }
      ],
      "stateMutability": "view",
      "type": "function"
    },
    {
      "inputs": [
        {
          "internalType": "uint256",
          "name": "tokenId",
          "type": "uint256"
        }
      ],
      "name": "getApproved",
      "outputs": [
        {
          "internalType": "address",
          "name": "",
          "type": "address"
        }
      ],
      "stateMutability": "view",
      "type": "function"
    },
    {
      "inputs": [
        {
          "internalType": "uint256",
          "name": "moddedRng",
          "type": "uint256"
        }
      ],
      "name": "getBreedFromModdedRng",
      "outputs": [
        {
          "internalType": "enum RandomIpfsNft.Breed",
          "name": "",
          "type": "uint8"
        }
      ],
      "stateMutability": "pure",
      "type": "function"
    },
    {
      "inputs": [],
      "name": "getChanceArray",
      "outputs": [
        {
          "internalType": "uint256[3]",
          "name": "",
          "type": "uint256[3]"
        }
      ],
      "stateMutability": "pure",
      "type": "function"
    },
    {
      "inputs": [
        {
          "internalType": "uint256",
          "name": "index",
          "type": "uint256"
        }
      ],
      "name": "getDogTokenURIs",
      "outputs": [
        {
          "internalType": "string",
          "name": "",
          "type": "string"
        }
      ],
      "stateMutability": "view",
      "type": "function"
    },
    {
      "inputs": [],
      "name": "getMintFee",
      "outputs": [
        {
          "internalType": "uint256",
          "name": "",
          "type": "uint256"
        }
      ],
      "stateMutability": "view",
      "type": "function"
    },
    {
      "inputs": [],
      "name": "getTokenCounter",
      "outputs": [
        {
          "internalType": "uint256",
          "name": "",
          "type": "uint256"
        }
      ],
      "stateMutability": "view",
      "type": "function"
    },
    {
      "inputs": [
        {
          "internalType": "address",
          "name": "owner",
          "type": "address"
        },
        {
          "internalType": "address",
          "name": "operator",
          "type": "address"
        }
      ],
      "name": "isApprovedForAll",
      "outputs": [
        {
          "internalType": "bool",
          "name": "",
          "type": "bool"
        }
      ],
      "stateMutability": "view",
      "type": "function"
    },
    {
      "inputs": [],
      "name": "name",
      "outputs": [
        {
          "internalType": "string",
          "name": "",
          "type": "string"
        }
      ],
      "stateMutability": "view",
      "type": "function"
    },
    {
      "inputs": [],
      "name": "owner",
      "outputs": [
        {
          "internalType": "address",
          "name": "",
          "type": "address"
        }
      ],
      "stateMutability": "view",
      "type": "function"
    },
    {
      "inputs": [
        {
          "internalType": "uint256",
          "name": "tokenId",
          "type": "uint256"
        }
      ],
      "name": "ownerOf",
      "outputs": [
        {
          "internalType": "address",
          "name": "",
          "type": "address"
        }
      ],
      "stateMutability": "view",
      "type": "function"
    },
    {
      "inputs": [
        {
          "internalType": "uint256",
          "name": "requestId",
          "type": "uint256"
        },
        {
          "internalType": "uint256[]",
          "name": "randomWords",
          "type": "uint256[]"
        }
      ],
      "name": "rawFulfillRandomWords",
      "outputs": [],
      "stateMutability": "nonpayable",
      "type": "function"
    },
    {
      "inputs": [],
      "name": "renounceOwnership",
      "outputs": [],
      "stateMutability": "nonpayable",
      "type": "function"
    },
    {
      "inputs": [],
      "name": "requestNft",
      "outputs": [
        {
          "internalType": "uint256",
          "name": "requestId",
          "type": "uint256"
        }
      ],
      "stateMutability": "payable",
      "type": "function"
    },
    {
      "inputs": [
        {
          "internalType": "uint256",
          "name": "",
          "type": "uint256"
        }
      ],
      "name": "s_requestIdToSender",
      "outputs": [
        {
          "internalType": "address",
          "name": "",
          "type": "address"
        }
      ],
      "stateMutability": "view",
      "type": "function"
    },
    {
      "inputs": [
        {
          "internalType": "address",
          "name": "from",
          "type": "address"
        },
        {
          "internalType": "address",
          "name": "to",
          "type": "address"
        },
        {
          "internalType": "uint256",
          "name": "tokenId",
          "type": "uint256"
        }
      ],
      "name": "safeTransferFrom",
      "outputs": [],
      "stateMutability": "nonpayable",
      "type": "function"
    },
    {
      "inputs": [
        {
          "internalType": "address",
          "name": "from",
          "type": "address"
        },
        {
          "internalType": "address",
          "name": "to",
          "type": "address"
        },
        {
          "internalType": "uint256",
          "name": "tokenId",
          "type": "uint256"
        },
        {
          "internalType": "bytes",
          "name": "data",
          "type": "bytes"
        }
      ],
      "name": "safeTransferFrom",
      "outputs": [],
      "stateMutability": "nonpayable",
      "type": "function"
    },
    {
      "inputs": [
        {
          "internalType": "address",
          "name": "operator",
          "type": "address"
        },
        {
          "internalType": "bool",
          "name": "approved",
          "type": "bool"
        }
      ],
      "name": "setApprovalForAll",
      "outputs": [],
      "stateMutability": "nonpayable",
      "type": "function"
    },
    {
      "inputs": [
        {
          "internalType": "bytes4",
          "name": "interfaceId",
          "type": "bytes4"
        }
      ],
      "name": "supportsInterface",
      "outputs": [
        {
          "internalType": "bool",
          "name": "",
          "type": "bool"
        }
      ],
      "stateMutability": "view",
      "type": "function"
    },
    {
      "inputs": [],
      "name": "symbol",
      "outputs": [
        {
          "internalType": "string",
          "name": "",
          "type": "string"
        }
      ],
      "stateMutability": "view",
      "type": "function"
    },
    {
      "inputs": [
        {
          "internalType": "uint256",
          "name": "tokenId",
          "type": "uint256"
        }
      ],
      "name": "tokenURI",
      "outputs": [
        {
          "internalType": "string",
          "name": "",
          "type": "string"
        }
      ],
      "stateMutability": "view",
      "type": "function"
    },
    {
      "inputs": [
        {
          "internalType": "address",
          "name": "from",
          "type": "address"
        },
        {
          "internalType": "address",
          "name": "to",
          "type": "address"
        },
        {
          "internalType": "uint256",
          "name": "tokenId",
          "type": "uint256"
        }
      ],
      "name": "transferFrom",
      "outputs": [],
      "stateMutability": "nonpayable",
      "type": "function"
    },
    {
      "inputs": [
        {
          "internalType": "address",
          "name": "newOwner",
          "type": "address"
        }
      ],
      "name": "transferOwnership",
      "outputs": [],
      "stateMutability": "nonpayable",
      "type": "function"
    },
    {
      "inputs": [],
      "name": "withdraw",
      "outputs": [],
      "stateMutability": "nonpayable",
      "type": "function"
    }
  ],
  "transactionHash": "0xb789a114048c382d86062079dcdbeb242800e46d0b9ab820f4de7b469d7b047a",
  "args": [
    "0x8103B0A8A00be2DDC778e6e7eaa21791Cd364625",
    "460",
    "0x474e34a077df58807dbe9c96d3c009b23b3c6d0cce433e59bbf5b34f823bc56c",
    "10000000000000000",
    "500000",
    [
      "ipfs://QmUY1XYkx6c57nRPZ5mzhWg2u9By4JAsnfkCYpxbfG7QS4",
      "ipfs://QmYPX9VM52JF8BEzF4wanFB7varcWUUkj1TsFYxMJdRZDg",
      "ipfs://QmZpg39uJA9TRBvSPJ1WtbGQa7Pqv7giP2gn7aWTXTCg9o"
    ]
  ],
  "numDeployments": 2,
  "solcInputHash": "d879ae8ab837f526d01c0e48c70bdb5e",
  "bytecode": "0x6101406040523480156200001257600080fd5b50604051620043e7380380620043e78339818101604052810190620000389190620005d7565b6040518060400160405280600f81526020017f52616e646f6d2049504653204e465400000000000000000000000000000000008152506040518060400160405280600381526020017f52494e0000000000000000000000000000000000000000000000000000000000815250878073ffffffffffffffffffffffffffffffffffffffff1660808173ffffffffffffffffffffffffffffffffffffffff1660601b81525050508160009080519060200190620000f59291906200029e565b5080600190805190602001906200010e9291906200029e565b5050506200013162000125620001d060201b60201c565b620001d860201b60201c565b8573ffffffffffffffffffffffffffffffffffffffff1660a08173ffffffffffffffffffffffffffffffffffffffff1660601b815250508467ffffffffffffffff1660c08167ffffffffffffffff1660c01b815250508360e081815250508163ffffffff166101008163ffffffff1660e01b81525050806009906003620001ba9291906200032f565b5082610120818152505050505050505062000932565b600033905090565b6000600760009054906101000a900473ffffffffffffffffffffffffffffffffffffffff16905081600760006101000a81548173ffffffffffffffffffffffffffffffffffffffff021916908373ffffffffffffffffffffffffffffffffffffffff1602179055508173ffffffffffffffffffffffffffffffffffffffff168173ffffffffffffffffffffffffffffffffffffffff167f8be0079c531659141344cd1fd0a4f28419497f9722a3daafe3b4186f6b6457e060405160405180910390a35050565b828054620002ac90620007bc565b90600052602060002090601f016020900481019282620002d057600085556200031c565b82601f10620002eb57805160ff19168380011785556200031c565b828001600101855582156200031c579182015b828111156200031b578251825591602001919060010190620002fe565b5b5090506200032b919062000396565b5090565b82805482825590600052602060002090810192821562000383579160200282015b8281111562000382578251829080519060200190620003719291906200029e565b509160200191906001019062000350565b5b509050620003929190620003b5565b5090565b5b80821115620003b157600081600090555060010162000397565b5090565b5b80821115620003d95760008181620003cf9190620003dd565b50600101620003b6565b5090565b508054620003eb90620007bc565b6000825580601f10620003ff575062000420565b601f0160209004906000526020600020908101906200041f919062000396565b5b50565b60006200043a6200043484620006bb565b62000692565b905080828560208602820111156200045757620004566200088b565b5b60005b85811015620004ac57815167ffffffffffffffff81111562000481576200048062000886565b5b8086016200049089826200055f565b855260208501945060208401935050506001810190506200045a565b5050509392505050565b6000620004cd620004c784620006e4565b62000692565b905082815260208101848484011115620004ec57620004eb62000890565b5b620004f984828562000786565b509392505050565b6000815190506200051281620008b0565b92915050565b600082601f83011262000530576200052f62000886565b5b60036200053f84828562000423565b91505092915050565b6000815190506200055981620008ca565b92915050565b600082601f83011262000577576200057662000886565b5b815162000589848260208601620004b6565b91505092915050565b600081519050620005a381620008e4565b92915050565b600081519050620005ba81620008fe565b92915050565b600081519050620005d18162000918565b92915050565b60008060008060008060c08789031215620005f757620005f66200089a565b5b60006200060789828a0162000501565b96505060206200061a89828a01620005c0565b95505060406200062d89828a0162000548565b94505060606200064089828a0162000592565b93505060806200065389828a01620005a9565b92505060a087015167ffffffffffffffff81111562000677576200067662000895565b5b6200068589828a0162000518565b9150509295509295509295565b60006200069e620006b1565b9050620006ac8282620007f2565b919050565b6000604051905090565b600067ffffffffffffffff821115620006d957620006d862000857565b5b602082029050919050565b600067ffffffffffffffff82111562000702576200070162000857565b5b6200070d826200089f565b9050602081019050919050565b6000620007278262000738565b9050919050565b6000819050919050565b600073ffffffffffffffffffffffffffffffffffffffff82169050919050565b6000819050919050565b600063ffffffff82169050919050565b600067ffffffffffffffff82169050919050565b60005b83811015620007a657808201518184015260208101905062000789565b83811115620007b6576000848401525b50505050565b60006002820490506001821680620007d557607f821691505b60208210811415620007ec57620007eb62000828565b5b50919050565b620007fd826200089f565b810181811067ffffffffffffffff821117156200081f576200081e62000857565b5b80604052505050565b7f4e487b7100000000000000000000000000000000000000000000000000000000600052602260045260246000fd5b7f4e487b7100000000000000000000000000000000000000000000000000000000600052604160045260246000fd5b600080fd5b600080fd5b600080fd5b600080fd5b600080fd5b6000601f19601f8301169050919050565b620008bb816200071a565b8114620008c757600080fd5b50565b620008d5816200072e565b8114620008e157600080fd5b50565b620008ef8162000758565b8114620008fb57600080fd5b50565b620009098162000762565b81146200091557600080fd5b50565b620009238162000772565b81146200092f57600080fd5b50565b60805160601c60a05160601c60c05160c01c60e0516101005160e01c61012051613a4b6200099c60003960008181610c4f0152610e4801526000610f2201526000610ede01526000610eff01526000610ea20152600081816108d101526109250152613a4b6000f3fe6080604052600436106101665760003560e01c8063715018a6116100d1578063a51cccf31161008a578063c87b56dd11610064578063c87b56dd1461051d578063e985e9c51461055a578063f2fde38b14610597578063f4eb69c3146105c057610166565b8063a51cccf314610499578063aa152491146104d6578063b88d4fde146104f457610166565b8063715018a61461039b5780637a5caab3146103b25780638da5cb5b146103dd57806395d89b4114610408578063a22cb46514610433578063a36f573b1461045c57610166565b80633ccfd60b116101235780633ccfd60b1461028b57806342842e0e146102a25780635dacf5f4146102cb5780636352211e146102f65780636e02007d1461033357806370a082311461035e57610166565b806301ffc9a71461016b57806306fdde03146101a8578063081812fc146101d3578063095ea7b3146102105780631fe543e31461023957806323b872dd14610262575b600080fd5b34801561017757600080fd5b50610192600480360381019061018d919061293a565b6105fd565b60405161019f9190612ed4565b60405180910390f35b3480156101b457600080fd5b506101bd6106df565b6040516101ca9190612f86565b60405180910390f35b3480156101df57600080fd5b506101fa60048036038101906101f59190612994565b610771565b6040516102079190612e29565b60405180910390f35b34801561021c57600080fd5b50610237600480360381019061023291906128fa565b6107b7565b005b34801561024557600080fd5b50610260600480360381019061025b91906129ee565b6108cf565b005b34801561026e57600080fd5b50610289600480360381019061028491906127e4565b61098f565b005b34801561029757600080fd5b506102a06109ef565b005b3480156102ae57600080fd5b506102c960048036038101906102c491906127e4565b610aa3565b005b3480156102d757600080fd5b506102e0610ac3565b6040516102ed9190612eb9565b60405180910390f35b34801561030257600080fd5b5061031d60048036038101906103189190612994565b610aee565b60405161032a9190612e29565b60405180910390f35b34801561033f57600080fd5b50610348610b75565b6040516103559190613168565b60405180910390f35b34801561036a57600080fd5b5061038560048036038101906103809190612777565b610b7f565b6040516103929190613168565b60405180910390f35b3480156103a757600080fd5b506103b0610c37565b005b3480156103be57600080fd5b506103c7610c4b565b6040516103d49190613168565b60405180910390f35b3480156103e957600080fd5b506103f2610c73565b6040516103ff9190612e29565b60405180910390f35b34801561041457600080fd5b5061041d610c9d565b60405161042a9190612f86565b60405180910390f35b34801561043f57600080fd5b5061045a600480360381019061045591906128ba565b610d2f565b005b34801561046857600080fd5b50610483600480360381019061047e9190612994565b610d45565b6040516104909190612e29565b60405180910390f35b3480156104a557600080fd5b506104c060048036038101906104bb9190612994565b610d78565b6040516104cd9190612f42565b60405180910390f35b6104de610e44565b6040516104eb9190613168565b60405180910390f35b34801561050057600080fd5b5061051b60048036038101906105169190612837565b611044565b005b34801561052957600080fd5b50610544600480360381019061053f9190612994565b6110a6565b6040516105519190612f86565b60405180910390f35b34801561056657600080fd5b50610581600480360381019061057c91906127a4565b6111b9565b60405161058e9190612ed4565b60405180910390f35b3480156105a357600080fd5b506105be60048036038101906105b99190612777565b61124d565b005b3480156105cc57600080fd5b506105e760048036038101906105e29190612994565b6112d1565b6040516105f49190612f86565b60405180910390f35b60007f80ac58cd000000000000000000000000000000000000000000000000000000007bffffffffffffffffffffffffffffffffffffffffffffffffffffffff1916827bffffffffffffffffffffffffffffffffffffffffffffffffffffffff191614806106c857507f5b5e139f000000000000000000000000000000000000000000000000000000007bffffffffffffffffffffffffffffffffffffffffffffffffffffffff1916827bffffffffffffffffffffffffffffffffffffffffffffffffffffffff1916145b806106d857506106d782611381565b5b9050919050565b6060600080546106ee906133ed565b80601f016020809104026020016040519081016040528092919081815260200182805461071a906133ed565b80156107675780601f1061073c57610100808354040283529160200191610767565b820191906000526020600020905b81548152906001019060200180831161074a57829003601f168201915b5050505050905090565b600061077c826113eb565b6004600083815260200190815260200160002060009054906101000a900473ffffffffffffffffffffffffffffffffffffffff169050919050565b60006107c282610aee565b90508073ffffffffffffffffffffffffffffffffffffffff168373ffffffffffffffffffffffffffffffffffffffff161415610833576040517f08c379a000000000000000000000000000000000000000000000000000000000815260040161082a90613128565b60405180910390fd5b8073ffffffffffffffffffffffffffffffffffffffff16610852611436565b73ffffffffffffffffffffffffffffffffffffffff16148061088157506108808161087b611436565b6111b9565b5b6108c0576040517f08c379a00000000000000000000000000000000000000000000000000000000081526004016108b790613148565b60405180910390fd5b6108ca838361143e565b505050565b7f000000000000000000000000000000000000000000000000000000000000000073ffffffffffffffffffffffffffffffffffffffff163373ffffffffffffffffffffffffffffffffffffffff161461098157337f00000000000000000000000000000000000000000000000000000000000000006040517f1cf993f4000000000000000000000000000000000000000000000000000000008152600401610978929190612e44565b60405180910390fd5b61098b82826114f7565b5050565b6109a061099a611436565b82611691565b6109df576040517f08c379a00000000000000000000000000000000000000000000000000000000081526004016109d690612fa8565b60405180910390fd5b6109ea838383611726565b505050565b6109f7611a20565b600047905060003373ffffffffffffffffffffffffffffffffffffffff1682604051610a2290612e14565b60006040518083038185875af1925050503d8060008114610a5f576040519150601f19603f3d011682016040523d82523d6000602084013e610a64565b606091505b5050905080610a9f576040517fca7e25b700000000000000000000000000000000000000000000000000000000815260040160405180910390fd5b5050565b610abe83838360405180602001604052806000815250611044565b505050565b610acb612526565b6040518060600160405280600a8152602001601e81526020016064815250905090565b600080610afa83611a9e565b9050600073ffffffffffffffffffffffffffffffffffffffff168173ffffffffffffffffffffffffffffffffffffffff161415610b6c576040517f08c379a0000000000000000000000000000000000000000000000000000000008152600401610b6390613108565b60405180910390fd5b80915050919050565b6000600854905090565b60008073ffffffffffffffffffffffffffffffffffffffff168273ffffffffffffffffffffffffffffffffffffffff161415610bf0576040517f08c379a0000000000000000000000000000000000000000000000000000000008152600401610be790613088565b60405180910390fd5b600360008373ffffffffffffffffffffffffffffffffffffffff1673ffffffffffffffffffffffffffffffffffffffff168152602001908152602001600020549050919050565b610c3f611a20565b610c496000611adb565b565b60007f0000000000000000000000000000000000000000000000000000000000000000905090565b6000600760009054906101000a900473ffffffffffffffffffffffffffffffffffffffff16905090565b606060018054610cac906133ed565b80601f0160208091040260200160405190810160405280929190818152602001828054610cd8906133ed565b8015610d255780601f10610cfa57610100808354040283529160200191610d25565b820191906000526020600020905b815481529060010190602001808311610d0857829003601f168201915b5050505050905090565b610d41610d3a611436565b8383611ba1565b5050565b600a6020528060005260406000206000915054906101000a900473ffffffffffffffffffffffffffffffffffffffff1681565b600080600090506000610d89610ac3565b905060005b6003811015610e0c57828510158015610dbd5750818160038110610db557610db4613586565b5b602002015185105b15610ddf57806002811115610dd557610dd4613528565b5b9350505050610e3f565b818160038110610df257610df1613586565b5b602002015192508080610e0490613450565b915050610d8e565b506040517f12806c9d00000000000000000000000000000000000000000000000000000000815260040160405180910390fd5b919050565b60007f0000000000000000000000000000000000000000000000000000000000000000341015610ea0576040517fb90f491000000000000000000000000000000000000000000000000000000000815260040160405180910390fd5b7f000000000000000000000000000000000000000000000000000000000000000073ffffffffffffffffffffffffffffffffffffffff16635d3b1d307f00000000000000000000000000000000000000000000000000000000000000007f000000000000000000000000000000000000000000000000000000000000000060037f000000000000000000000000000000000000000000000000000000000000000060016040518663ffffffff1660e01b8152600401610f63959493929190612eef565b602060405180830381600087803b158015610f7d57600080fd5b505af1158015610f91573d6000803e3d6000fd5b505050506040513d601f19601f82011682018060405250810190610fb591906129c1565b905033600a600083815260200190815260200160002060006101000a81548173ffffffffffffffffffffffffffffffffffffffff021916908373ffffffffffffffffffffffffffffffffffffffff160217905550807ff873236e6cc0ecc5be1a9a35c95ee5b8d1ac4cc7bfef0cc5060391d6cc98e26b336040516110399190612e29565b60405180910390a290565b61105561104f611436565b83611691565b611094576040517f08c379a000000000000000000000000000000000000000000000000000000000815260040161108b90612fa8565b60405180910390fd5b6110a084848484611d0e565b50505050565b60606110b1826113eb565b60006006600084815260200190815260200160002080546110d1906133ed565b80601f01602080910402602001604051908101604052809291908181526020018280546110fd906133ed565b801561114a5780601f1061111f5761010080835404028352916020019161114a565b820191906000526020600020905b81548152906001019060200180831161112d57829003601f168201915b50505050509050600061115b611d6a565b90506000815114156111715781925050506111b4565b6000825111156111a657808260405160200161118e929190612df0565b604051602081830303815290604052925050506111b4565b6111af84611d81565b925050505b919050565b6000600560008473ffffffffffffffffffffffffffffffffffffffff1673ffffffffffffffffffffffffffffffffffffffff16815260200190815260200160002060008373ffffffffffffffffffffffffffffffffffffffff1673ffffffffffffffffffffffffffffffffffffffff16815260200190815260200160002060009054906101000a900460ff16905092915050565b611255611a20565b600073ffffffffffffffffffffffffffffffffffffffff168173ffffffffffffffffffffffffffffffffffffffff1614156112c5576040517f08c379a00000000000000000000000000000000000000000000000000000000081526004016112bc90612fe8565b60405180910390fd5b6112ce81611adb565b50565b6060600982815481106112e7576112e6613586565b5b9060005260206000200180546112fc906133ed565b80601f0160208091040260200160405190810160405280929190818152602001828054611328906133ed565b80156113755780601f1061134a57610100808354040283529160200191611375565b820191906000526020600020905b81548152906001019060200180831161135857829003601f168201915b50505050509050919050565b60007f01ffc9a7000000000000000000000000000000000000000000000000000000007bffffffffffffffffffffffffffffffffffffffffffffffffffffffff1916827bffffffffffffffffffffffffffffffffffffffffffffffffffffffff1916149050919050565b6113f481611de9565b611433576040517f08c379a000000000000000000000000000000000000000000000000000000000815260040161142a90613108565b60405180910390fd5b50565b600033905090565b816004600083815260200190815260200160002060006101000a81548173ffffffffffffffffffffffffffffffffffffffff021916908373ffffffffffffffffffffffffffffffffffffffff160217905550808273ffffffffffffffffffffffffffffffffffffffff166114b183610aee565b73ffffffffffffffffffffffffffffffffffffffff167f8c5be1e5ebec7d5bd14f71427d1e84f3dd0314c0f7b2291e5b200ac8c7c3b92560405160405180910390a45050565b6000600a600084815260200190815260200160002060009054906101000a900473ffffffffffffffffffffffffffffffffffffffff1690506000600854905060016008546115459190613280565b600881905550600060648460008151811061156357611562613586565b5b60200260200101516115759190613499565b9050600061158282610d78565b905061158e8484611e2a565b6116508360098360028111156115a7576115a6613528565b5b815481106115b8576115b7613586565b5b9060005260206000200180546115cd906133ed565b80601f01602080910402602001604051908101604052809291908181526020018280546115f9906133ed565b80156116465780601f1061161b57610100808354040283529160200191611646565b820191906000526020600020905b81548152906001019060200180831161162957829003601f168201915b5050505050611e48565b7f8a269f26b688e110e9cbd887d163dab35cae678fa353a0292de532c0cac1ecdc8185604051611681929190612f5d565b60405180910390a1505050505050565b60008061169d83610aee565b90508073ffffffffffffffffffffffffffffffffffffffff168473ffffffffffffffffffffffffffffffffffffffff1614806116df57506116de81856111b9565b5b8061171d57508373ffffffffffffffffffffffffffffffffffffffff1661170584610771565b73ffffffffffffffffffffffffffffffffffffffff16145b91505092915050565b8273ffffffffffffffffffffffffffffffffffffffff1661174682610aee565b73ffffffffffffffffffffffffffffffffffffffff161461179c576040517f08c379a000000000000000000000000000000000000000000000000000000000815260040161179390613008565b60405180910390fd5b600073ffffffffffffffffffffffffffffffffffffffff168273ffffffffffffffffffffffffffffffffffffffff16141561180c576040517f08c379a000000000000000000000000000000000000000000000000000000000815260040161180390613048565b60405180910390fd5b6118198383836001611ebc565b8273ffffffffffffffffffffffffffffffffffffffff1661183982610aee565b73ffffffffffffffffffffffffffffffffffffffff161461188f576040517f08c379a000000000000000000000000000000000000000000000000000000000815260040161188690613008565b60405180910390fd5b6004600082815260200190815260200160002060006101000a81549073ffffffffffffffffffffffffffffffffffffffff02191690556001600360008573ffffffffffffffffffffffffffffffffffffffff1673ffffffffffffffffffffffffffffffffffffffff168152602001908152602001600020600082825403925050819055506001600360008473ffffffffffffffffffffffffffffffffffffffff1673ffffffffffffffffffffffffffffffffffffffff16815260200190815260200160002060008282540192505081905550816002600083815260200190815260200160002060006101000a81548173ffffffffffffffffffffffffffffffffffffffff021916908373ffffffffffffffffffffffffffffffffffffffff160217905550808273ffffffffffffffffffffffffffffffffffffffff168473ffffffffffffffffffffffffffffffffffffffff167fddf252ad1be2c89b69c2b068fc378daa952ba7f163c4a11628f55a4df523b3ef60405160405180910390a4611a1b8383836001611ec2565b505050565b611a28611436565b73ffffffffffffffffffffffffffffffffffffffff16611a46610c73565b73ffffffffffffffffffffffffffffffffffffffff1614611a9c576040517f08c379a0000000000000000000000000000000000000000000000000000000008152600401611a93906130e8565b60405180910390fd5b565b60006002600083815260200190815260200160002060009054906101000a900473ffffffffffffffffffffffffffffffffffffffff169050919050565b6000600760009054906101000a900473ffffffffffffffffffffffffffffffffffffffff16905081600760006101000a81548173ffffffffffffffffffffffffffffffffffffffff021916908373ffffffffffffffffffffffffffffffffffffffff1602179055508173ffffffffffffffffffffffffffffffffffffffff168173ffffffffffffffffffffffffffffffffffffffff167f8be0079c531659141344cd1fd0a4f28419497f9722a3daafe3b4186f6b6457e060405160405180910390a35050565b8173ffffffffffffffffffffffffffffffffffffffff168373ffffffffffffffffffffffffffffffffffffffff161415611c10576040517f08c379a0000000000000000000000000000000000000000000000000000000008152600401611c0790613068565b60405180910390fd5b80600560008573ffffffffffffffffffffffffffffffffffffffff1673ffffffffffffffffffffffffffffffffffffffff16815260200190815260200160002060008473ffffffffffffffffffffffffffffffffffffffff1673ffffffffffffffffffffffffffffffffffffffff16815260200190815260200160002060006101000a81548160ff0219169083151502179055508173ffffffffffffffffffffffffffffffffffffffff168373ffffffffffffffffffffffffffffffffffffffff167f17307eab39ab6107e8899845ad3d59bd9653f200f220920489ca2b5937696c3183604051611d019190612ed4565b60405180910390a3505050565b611d19848484611726565b611d2584848484611ec8565b611d64576040517f08c379a0000000000000000000000000000000000000000000000000000000008152600401611d5b90612fc8565b60405180910390fd5b50505050565b606060405180602001604052806000815250905090565b6060611d8c826113eb565b6000611d96611d6a565b90506000815111611db65760405180602001604052806000815250611de1565b80611dc08461205f565b604051602001611dd1929190612df0565b6040516020818303038152906040525b915050919050565b60008073ffffffffffffffffffffffffffffffffffffffff16611e0b83611a9e565b73ffffffffffffffffffffffffffffffffffffffff1614159050919050565b611e44828260405180602001604052806000815250612137565b5050565b611e5182611de9565b611e90576040517f08c379a0000000000000000000000000000000000000000000000000000000008152600401611e87906130a8565b60405180910390fd5b80600660008481526020019081526020016000209080519060200190611eb7929190612548565b505050565b50505050565b50505050565b6000611ee98473ffffffffffffffffffffffffffffffffffffffff16612192565b15612052578373ffffffffffffffffffffffffffffffffffffffff1663150b7a02611f12611436565b8786866040518563ffffffff1660e01b8152600401611f349493929190612e6d565b602060405180830381600087803b158015611f4e57600080fd5b505af1925050508015611f7f57506040513d601f19601f82011682018060405250810190611f7c9190612967565b60015b612002573d8060008114611faf576040519150601f19603f3d011682016040523d82523d6000602084013e611fb4565b606091505b50600081511415611ffa576040517f08c379a0000000000000000000000000000000000000000000000000000000008152600401611ff190612fc8565b60405180910390fd5b805181602001fd5b63150b7a0260e01b7bffffffffffffffffffffffffffffffffffffffffffffffffffffffff1916817bffffffffffffffffffffffffffffffffffffffffffffffffffffffff191614915050612057565b600190505b949350505050565b60606000600161206e846121b5565b01905060008167ffffffffffffffff81111561208d5761208c6135b5565b5b6040519080825280601f01601f1916602001820160405280156120bf5781602001600182028036833780820191505090505b509050600082602001820190505b60011561212c578080600190039150507f3031323334353637383961626364656600000000000000000000000000000000600a86061a8153600a8581612116576121156134f9565b5b04945060008514156121275761212c565b6120cd565b819350505050919050565b6121418383612308565b61214e6000848484611ec8565b61218d576040517f08c379a000000000000000000000000000000000000000000000000000000000815260040161218490612fc8565b60405180910390fd5b505050565b6000808273ffffffffffffffffffffffffffffffffffffffff163b119050919050565b600080600090507a184f03e93ff9f4daa797ed6e38ed64bf6a1f0100000000000000008310612213577a184f03e93ff9f4daa797ed6e38ed64bf6a1f0100000000000000008381612209576122086134f9565b5b0492506040810190505b6d04ee2d6d415b85acef81000000008310612250576d04ee2d6d415b85acef81000000008381612246576122456134f9565b5b0492506020810190505b662386f26fc10000831061227f57662386f26fc100008381612275576122746134f9565b5b0492506010810190505b6305f5e10083106122a8576305f5e100838161229e5761229d6134f9565b5b0492506008810190505b61271083106122cd5761271083816122c3576122c26134f9565b5b0492506004810190505b606483106122f057606483816122e6576122e56134f9565b5b0492506002810190505b600a83106122ff576001810190505b80915050919050565b600073ffffffffffffffffffffffffffffffffffffffff168273ffffffffffffffffffffffffffffffffffffffff161415612378576040517f08c379a000000000000000000000000000000000000000000000000000000000815260040161236f906130c8565b60405180910390fd5b61238181611de9565b156123c1576040517f08c379a00000000000000000000000000000000000000000000000000000000081526004016123b890613028565b60405180910390fd5b6123cf600083836001611ebc565b6123d881611de9565b15612418576040517f08c379a000000000000000000000000000000000000000000000000000000000815260040161240f90613028565b60405180910390fd5b6001600360008473ffffffffffffffffffffffffffffffffffffffff1673ffffffffffffffffffffffffffffffffffffffff16815260200190815260200160002060008282540192505081905550816002600083815260200190815260200160002060006101000a81548173ffffffffffffffffffffffffffffffffffffffff021916908373ffffffffffffffffffffffffffffffffffffffff160217905550808273ffffffffffffffffffffffffffffffffffffffff16600073ffffffffffffffffffffffffffffffffffffffff167fddf252ad1be2c89b69c2b068fc378daa952ba7f163c4a11628f55a4df523b3ef60405160405180910390a4612522600083836001611ec2565b5050565b6040518060600160405280600390602082028036833780820191505090505090565b828054612554906133ed565b90600052602060002090601f01602090048101928261257657600085556125bd565b82601f1061258f57805160ff19168380011785556125bd565b828001600101855582156125bd579182015b828111156125bc5782518255916020019190600101906125a1565b5b5090506125ca91906125ce565b5090565b5b808211156125e75760008160009055506001016125cf565b5090565b60006125fe6125f9846131a8565b613183565b90508083825260208201905082856020860282011115612621576126206135e9565b5b60005b858110156126515781612637888261274d565b845260208401935060208301925050600181019050612624565b5050509392505050565b600061266e612669846131d4565b613183565b90508281526020810184848401111561268a576126896135ee565b5b6126958482856133ab565b509392505050565b6000813590506126ac816139b9565b92915050565b600082601f8301126126c7576126c66135e4565b5b81356126d78482602086016125eb565b91505092915050565b6000813590506126ef816139d0565b92915050565b600081359050612704816139e7565b92915050565b600081519050612719816139e7565b92915050565b600082601f830112612734576127336135e4565b5b813561274484826020860161265b565b91505092915050565b60008135905061275c816139fe565b92915050565b600081519050612771816139fe565b92915050565b60006020828403121561278d5761278c6135f8565b5b600061279b8482850161269d565b91505092915050565b600080604083850312156127bb576127ba6135f8565b5b60006127c98582860161269d565b92505060206127da8582860161269d565b9150509250929050565b6000806000606084860312156127fd576127fc6135f8565b5b600061280b8682870161269d565b935050602061281c8682870161269d565b925050604061282d8682870161274d565b9150509250925092565b60008060008060808587031215612851576128506135f8565b5b600061285f8782880161269d565b94505060206128708782880161269d565b93505060406128818782880161274d565b925050606085013567ffffffffffffffff8111156128a2576128a16135f3565b5b6128ae8782880161271f565b91505092959194509250565b600080604083850312156128d1576128d06135f8565b5b60006128df8582860161269d565b92505060206128f0858286016126e0565b9150509250929050565b60008060408385031215612911576129106135f8565b5b600061291f8582860161269d565b92505060206129308582860161274d565b9150509250929050565b6000602082840312156129505761294f6135f8565b5b600061295e848285016126f5565b91505092915050565b60006020828403121561297d5761297c6135f8565b5b600061298b8482850161270a565b91505092915050565b6000602082840312156129aa576129a96135f8565b5b60006129b88482850161274d565b91505092915050565b6000602082840312156129d7576129d66135f8565b5b60006129e584828501612762565b91505092915050565b60008060408385031215612a0557612a046135f8565b5b6000612a138582860161274d565b925050602083013567ffffffffffffffff811115612a3457612a336135f3565b5b612a40858286016126b2565b9150509250929050565b6000612a568383612db4565b60208301905092915050565b612a6b816132d6565b82525050565b612a7a8161320f565b612a84818461323d565b9250612a8f82613205565b8060005b83811015612ac0578151612aa78782612a4a565b9650612ab283613230565b925050600181019050612a93565b505050505050565b612ad1816132e8565b82525050565b612ae0816132f4565b82525050565b6000612af18261321a565b612afb8185613248565b9350612b0b8185602086016133ba565b612b14816135fd565b840191505092915050565b612b2881613399565b82525050565b6000612b3982613225565b612b438185613264565b9350612b538185602086016133ba565b612b5c816135fd565b840191505092915050565b6000612b7282613225565b612b7c8185613275565b9350612b8c8185602086016133ba565b80840191505092915050565b6000612ba5602d83613264565b9150612bb08261360e565b604082019050919050565b6000612bc8603283613264565b9150612bd38261365d565b604082019050919050565b6000612beb602683613264565b9150612bf6826136ac565b604082019050919050565b6000612c0e602583613264565b9150612c19826136fb565b604082019050919050565b6000612c31601c83613264565b9150612c3c8261374a565b602082019050919050565b6000612c54602483613264565b9150612c5f82613773565b604082019050919050565b6000612c77601983613264565b9150612c82826137c2565b602082019050919050565b6000612c9a602983613264565b9150612ca5826137eb565b604082019050919050565b6000612cbd602e83613264565b9150612cc88261383a565b604082019050919050565b6000612ce0602083613264565b9150612ceb82613889565b602082019050919050565b6000612d03602083613264565b9150612d0e826138b2565b602082019050919050565b6000612d26601883613264565b9150612d31826138db565b602082019050919050565b6000612d49602183613264565b9150612d5482613904565b604082019050919050565b6000612d6c600083613259565b9150612d7782613953565b600082019050919050565b6000612d8f603d83613264565b9150612d9a82613956565b604082019050919050565b612dae8161333d565b82525050565b612dbd8161336b565b82525050565b612dcc8161336b565b82525050565b612ddb81613375565b82525050565b612dea81613385565b82525050565b6000612dfc8285612b67565b9150612e088284612b67565b91508190509392505050565b6000612e1f82612d5f565b9150819050919050565b6000602082019050612e3e6000830184612a62565b92915050565b6000604082019050612e596000830185612a62565b612e666020830184612a62565b9392505050565b6000608082019050612e826000830187612a62565b612e8f6020830186612a62565b612e9c6040830185612dc3565b8181036060830152612eae8184612ae6565b905095945050505050565b6000606082019050612ece6000830184612a71565b92915050565b6000602082019050612ee96000830184612ac8565b92915050565b600060a082019050612f046000830188612ad7565b612f116020830187612de1565b612f1e6040830186612da5565b612f2b6060830185612dd2565b612f386080830184612dd2565b9695505050505050565b6000602082019050612f576000830184612b1f565b92915050565b6000604082019050612f726000830185612b1f565b612f7f6020830184612a62565b9392505050565b60006020820190508181036000830152612fa08184612b2e565b905092915050565b60006020820190508181036000830152612fc181612b98565b9050919050565b60006020820190508181036000830152612fe181612bbb565b9050919050565b6000602082019050818103600083015261300181612bde565b9050919050565b6000602082019050818103600083015261302181612c01565b9050919050565b6000602082019050818103600083015261304181612c24565b9050919050565b6000602082019050818103600083015261306181612c47565b9050919050565b6000602082019050818103600083015261308181612c6a565b9050919050565b600060208201905081810360008301526130a181612c8d565b9050919050565b600060208201905081810360008301526130c181612cb0565b9050919050565b600060208201905081810360008301526130e181612cd3565b9050919050565b6000602082019050818103600083015261310181612cf6565b9050919050565b6000602082019050818103600083015261312181612d19565b9050919050565b6000602082019050818103600083015261314181612d3c565b9050919050565b6000602082019050818103600083015261316181612d82565b9050919050565b600060208201905061317d6000830184612dc3565b92915050565b600061318d61319e565b9050613199828261341f565b919050565b6000604051905090565b600067ffffffffffffffff8211156131c3576131c26135b5565b5b602082029050602081019050919050565b600067ffffffffffffffff8211156131ef576131ee6135b5565b5b6131f8826135fd565b9050602081019050919050565b6000819050919050565b600060039050919050565b600081519050919050565b600081519050919050565b6000602082019050919050565b600081905092915050565b600082825260208201905092915050565b600081905092915050565b600082825260208201905092915050565b600081905092915050565b600061328b8261336b565b91506132968361336b565b9250827fffffffffffffffffffffffffffffffffffffffffffffffffffffffffffffffff038211156132cb576132ca6134ca565b5b828201905092915050565b60006132e18261334b565b9050919050565b60008115159050919050565b6000819050919050565b60007fffffffff0000000000000000000000000000000000000000000000000000000082169050919050565b6000819050613338826139a5565b919050565b600061ffff82169050919050565b600073ffffffffffffffffffffffffffffffffffffffff82169050919050565b6000819050919050565b600063ffffffff82169050919050565b600067ffffffffffffffff82169050919050565b60006133a48261332a565b9050919050565b82818337600083830152505050565b60005b838110156133d85780820151818401526020810190506133bd565b838111156133e7576000848401525b50505050565b6000600282049050600182168061340557607f821691505b6020821081141561341957613418613557565b5b50919050565b613428826135fd565b810181811067ffffffffffffffff82111715613447576134466135b5565b5b80604052505050565b600061345b8261336b565b91507fffffffffffffffffffffffffffffffffffffffffffffffffffffffffffffffff82141561348e5761348d6134ca565b5b600182019050919050565b60006134a48261336b565b91506134af8361336b565b9250826134bf576134be6134f9565b5b828206905092915050565b7f4e487b7100000000000000000000000000000000000000000000000000000000600052601160045260246000fd5b7f4e487b7100000000000000000000000000000000000000000000000000000000600052601260045260246000fd5b7f4e487b7100000000000000000000000000000000000000000000000000000000600052602160045260246000fd5b7f4e487b7100000000000000000000000000000000000000000000000000000000600052602260045260246000fd5b7f4e487b7100000000000000000000000000000000000000000000000000000000600052603260045260246000fd5b7f4e487b7100000000000000000000000000000000000000000000000000000000600052604160045260246000fd5b600080fd5b600080fd5b600080fd5b600080fd5b600080fd5b6000601f19601f8301169050919050565b7f4552433732313a2063616c6c6572206973206e6f7420746f6b656e206f776e6560008201527f72206f7220617070726f76656400000000000000000000000000000000000000602082015250565b7f4552433732313a207472616e7366657220746f206e6f6e20455243373231526560008201527f63656976657220696d706c656d656e7465720000000000000000000000000000602082015250565b7f4f776e61626c653a206e6577206f776e657220697320746865207a65726f206160008201527f6464726573730000000000000000000000000000000000000000000000000000602082015250565b7f4552433732313a207472616e736665722066726f6d20696e636f72726563742060008201527f6f776e6572000000000000000000000000000000000000000000000000000000602082015250565b7f4552433732313a20746f6b656e20616c7265616479206d696e74656400000000600082015250565b7f4552433732313a207472616e7366657220746f20746865207a65726f2061646460008201527f7265737300000000000000000000000000000000000000000000000000000000602082015250565b7f4552433732313a20617070726f766520746f2063616c6c657200000000000000600082015250565b7f4552433732313a2061646472657373207a65726f206973206e6f74206120766160008201527f6c6964206f776e65720000000000000000000000000000000000000000000000602082015250565b7f45524337323155524953746f726167653a2055524920736574206f66206e6f6e60008201527f6578697374656e7420746f6b656e000000000000000000000000000000000000602082015250565b7f4552433732313a206d696e7420746f20746865207a65726f2061646472657373600082015250565b7f4f776e61626c653a2063616c6c6572206973206e6f7420746865206f776e6572600082015250565b7f4552433732313a20696e76616c696420746f6b656e2049440000000000000000600082015250565b7f4552433732313a20617070726f76616c20746f2063757272656e74206f776e6560008201527f7200000000000000000000000000000000000000000000000000000000000000602082015250565b50565b7f4552433732313a20617070726f76652063616c6c6572206973206e6f7420746f60008201527f6b656e206f776e6572206f7220617070726f76656420666f7220616c6c000000602082015250565b600381106139b6576139b5613528565b5b50565b6139c2816132d6565b81146139cd57600080fd5b50565b6139d9816132e8565b81146139e457600080fd5b50565b6139f0816132fe565b81146139fb57600080fd5b50565b613a078161336b565b8114613a1257600080fd5b5056fea264697066735822122061c20ec9c3a7a415022ac0f0b748007abe0beeefb2c4697451b336415d248c0c64736f6c63430008070033",
  "devdoc": {
    "kind": "dev",
    "methods": {
      "approve(address,uint256)": {
        "details": "See {IERC721-approve}."
      },
      "balanceOf(address)": {
        "details": "See {IERC721-balanceOf}."
      },
      "getApproved(uint256)": {
        "details": "See {IERC721-getApproved}."
      },
      "isApprovedForAll(address,address)": {
        "details": "See {IERC721-isApprovedForAll}."
      },
      "name()": {
        "details": "See {IERC721Metadata-name}."
      },
      "owner()": {
        "details": "Returns the address of the current owner."
      },
      "ownerOf(uint256)": {
        "details": "See {IERC721-ownerOf}."
      },
      "renounceOwnership()": {
        "details": "Leaves the contract without owner. It will not be possible to call `onlyOwner` functions anymore. Can only be called by the current owner. NOTE: Renouncing ownership will leave the contract without an owner, thereby removing any functionality that is only available to the owner."
      },
      "safeTransferFrom(address,address,uint256)": {
        "details": "See {IERC721-safeTransferFrom}."
      },
      "safeTransferFrom(address,address,uint256,bytes)": {
        "details": "See {IERC721-safeTransferFrom}."
      },
      "setApprovalForAll(address,bool)": {
        "details": "See {IERC721-setApprovalForAll}."
      },
      "supportsInterface(bytes4)": {
        "details": "See {IERC165-supportsInterface}."
      },
      "symbol()": {
        "details": "See {IERC721Metadata-symbol}."
      },
      "tokenURI(uint256)": {
        "details": "See {IERC721Metadata-tokenURI}."
      },
      "transferFrom(address,address,uint256)": {
        "details": "See {IERC721-transferFrom}."
      },
      "transferOwnership(address)": {
        "details": "Transfers ownership of the contract to a new account (`newOwner`). Can only be called by the current owner."
      }
    },
    "version": 1
  },
  "userdoc": {
    "kind": "user",
    "methods": {},
    "version": 1
  },
  "storageLayout": {
    "storage": [
      {
        "astId": 285,
        "contract": "contracts/RandomIpfsNft.sol:RandomIpfsNft",
        "label": "_name",
        "offset": 0,
        "slot": "0",
        "type": "t_string_storage"
      },
      {
        "astId": 287,
        "contract": "contracts/RandomIpfsNft.sol:RandomIpfsNft",
        "label": "_symbol",
        "offset": 0,
        "slot": "1",
        "type": "t_string_storage"
      },
      {
        "astId": 291,
        "contract": "contracts/RandomIpfsNft.sol:RandomIpfsNft",
        "label": "_owners",
        "offset": 0,
        "slot": "2",
        "type": "t_mapping(t_uint256,t_address)"
      },
      {
        "astId": 295,
        "contract": "contracts/RandomIpfsNft.sol:RandomIpfsNft",
        "label": "_balances",
        "offset": 0,
        "slot": "3",
        "type": "t_mapping(t_address,t_uint256)"
      },
      {
        "astId": 299,
        "contract": "contracts/RandomIpfsNft.sol:RandomIpfsNft",
        "label": "_tokenApprovals",
        "offset": 0,
        "slot": "4",
        "type": "t_mapping(t_uint256,t_address)"
      },
      {
        "astId": 305,
        "contract": "contracts/RandomIpfsNft.sol:RandomIpfsNft",
        "label": "_operatorApprovals",
        "offset": 0,
        "slot": "5",
        "type": "t_mapping(t_address,t_mapping(t_address,t_bool))"
      },
      {
        "astId": 1333,
        "contract": "contracts/RandomIpfsNft.sol:RandomIpfsNft",
        "label": "_tokenURIs",
        "offset": 0,
        "slot": "6",
        "type": "t_mapping(t_uint256,t_string_storage)"
      },
      {
        "astId": 154,
        "contract": "contracts/RandomIpfsNft.sol:RandomIpfsNft",
        "label": "_owner",
        "offset": 0,
        "slot": "7",
        "type": "t_address"
      },
      {
        "astId": 2939,
        "contract": "contracts/RandomIpfsNft.sol:RandomIpfsNft",
        "label": "s_tokenCounter",
        "offset": 0,
        "slot": "8",
        "type": "t_uint256"
      },
      {
        "astId": 2945,
        "contract": "contracts/RandomIpfsNft.sol:RandomIpfsNft",
        "label": "s_dogTokenURIs",
        "offset": 0,
        "slot": "9",
        "type": "t_array(t_string_storage)dyn_storage"
      },
      {
        "astId": 2964,
        "contract": "contracts/RandomIpfsNft.sol:RandomIpfsNft",
        "label": "s_requestIdToSender",
        "offset": 0,
        "slot": "10",
        "type": "t_mapping(t_uint256,t_address)"
      }
    ],
    "types": {
      "t_address": {
        "encoding": "inplace",
        "label": "address",
        "numberOfBytes": "20"
      },
      "t_array(t_string_storage)dyn_storage": {
        "base": "t_string_storage",
        "encoding": "dynamic_array",
        "label": "string[]",
        "numberOfBytes": "32"
      },
      "t_bool": {
        "encoding": "inplace",
        "label": "bool",
        "numberOfBytes": "1"
      },
      "t_mapping(t_address,t_bool)": {
        "encoding": "mapping",
        "key": "t_address",
        "label": "mapping(address => bool)",
        "numberOfBytes": "32",
        "value": "t_bool"
      },
      "t_mapping(t_address,t_mapping(t_address,t_bool))": {
        "encoding": "mapping",
        "key": "t_address",
        "label": "mapping(address => mapping(address => bool))",
        "numberOfBytes": "32",
        "value": "t_mapping(t_address,t_bool)"
      },
      "t_mapping(t_address,t_uint256)": {
        "encoding": "mapping",
        "key": "t_address",
        "label": "mapping(address => uint256)",
        "numberOfBytes": "32",
        "value": "t_uint256"
      },
      "t_mapping(t_uint256,t_address)": {
        "encoding": "mapping",
        "key": "t_uint256",
        "label": "mapping(uint256 => address)",
        "numberOfBytes": "32",
        "value": "t_address"
      },
      "t_mapping(t_uint256,t_string_storage)": {
        "encoding": "mapping",
        "key": "t_uint256",
        "label": "mapping(uint256 => string)",
        "numberOfBytes": "32",
        "value": "t_string_storage"
      },
      "t_string_storage": {
        "encoding": "bytes",
        "label": "string",
        "numberOfBytes": "32"
      },
      "t_uint256": {
        "encoding": "inplace",
        "label": "uint256",
        "numberOfBytes": "32"
      }
    }
  }
}